{
  "contractName": "NFDNS",
  "abi": [
    {
      "constant": true,
      "inputs": [
        {
          "name": "interfaceId",
          "type": "bytes4"
        }
      ],
      "name": "supportsInterface",
      "outputs": [
        {
          "name": "",
          "type": "bool"
        }
      ],
      "payable": false,
      "stateMutability": "view",
      "type": "function"
    },
    {
      "constant": true,
      "inputs": [],
      "name": "name",
      "outputs": [
        {
          "name": "",
          "type": "string"
        }
      ],
      "payable": false,
      "stateMutability": "view",
      "type": "function"
    },
    {
      "constant": true,
      "inputs": [
        {
          "name": "tokenId",
          "type": "uint256"
        }
      ],
      "name": "getApproved",
      "outputs": [
        {
          "name": "",
          "type": "address"
        }
      ],
      "payable": false,
      "stateMutability": "view",
      "type": "function"
    },
    {
      "constant": false,
      "inputs": [
        {
          "name": "to",
          "type": "address"
        },
        {
          "name": "tokenId",
          "type": "uint256"
        }
      ],
      "name": "approve",
      "outputs": [],
      "payable": false,
      "stateMutability": "nonpayable",
      "type": "function"
    },
    {
      "constant": false,
      "inputs": [
        {
          "name": "from",
          "type": "address"
        },
        {
          "name": "to",
          "type": "address"
        },
        {
          "name": "tokenId",
          "type": "uint256"
        }
      ],
      "name": "transferFrom",
      "outputs": [],
      "payable": false,
      "stateMutability": "nonpayable",
      "type": "function"
    },
    {
      "constant": true,
      "inputs": [
        {
          "name": "",
          "type": "uint256"
        }
      ],
      "name": "edoms",
      "outputs": [
        {
          "name": "edomName",
          "type": "string"
        },
        {
          "name": "timeAlive",
          "type": "uint256"
        },
        {
          "name": "timeLastMove",
          "type": "uint256"
        },
        {
          "name": "prevOwner",
          "type": "address"
        },
        {
          "name": "edomLink",
          "type": "string"
        }
      ],
      "payable": false,
      "stateMutability": "view",
      "type": "function"
    },
    {
      "constant": true,
      "inputs": [],
      "name": "edomMaxFree",
      "outputs": [
        {
          "name": "",
          "type": "uint256"
        }
      ],
      "payable": false,
      "stateMutability": "view",
      "type": "function"
    },
    {
      "constant": true,
      "inputs": [],
      "name": "edomMinLength",
      "outputs": [
        {
          "name": "",
          "type": "uint256"
        }
      ],
      "payable": false,
      "stateMutability": "view",
      "type": "function"
    },
    {
      "constant": true,
      "inputs": [],
      "name": "edomCurrentTotal",
      "outputs": [
        {
          "name": "",
          "type": "uint256"
        }
      ],
      "payable": false,
      "stateMutability": "view",
      "type": "function"
    },
    {
      "constant": false,
      "inputs": [
        {
          "name": "from",
          "type": "address"
        },
        {
          "name": "to",
          "type": "address"
        },
        {
          "name": "tokenId",
          "type": "uint256"
        }
      ],
      "name": "safeTransferFrom",
      "outputs": [],
      "payable": false,
      "stateMutability": "nonpayable",
      "type": "function"
    },
    {
      "constant": true,
      "inputs": [],
      "name": "baseUrl",
      "outputs": [
        {
          "name": "",
          "type": "string"
        }
      ],
      "payable": false,
      "stateMutability": "view",
      "type": "function"
    },
    {
      "constant": true,
      "inputs": [],
      "name": "edomMaxAmount",
      "outputs": [
        {
          "name": "",
          "type": "uint256"
        }
      ],
      "payable": false,
      "stateMutability": "view",
      "type": "function"
    },
    {
      "constant": true,
      "inputs": [
        {
          "name": "tokenId",
          "type": "uint256"
        }
      ],
      "name": "ownerOf",
      "outputs": [
        {
          "name": "",
          "type": "address"
        }
      ],
      "payable": false,
      "stateMutability": "view",
      "type": "function"
    },
    {
      "constant": true,
      "inputs": [
        {
          "name": "owner",
          "type": "address"
        }
      ],
      "name": "balanceOf",
      "outputs": [
        {
          "name": "",
          "type": "uint256"
        }
      ],
      "payable": false,
      "stateMutability": "view",
      "type": "function"
    },
    {
      "constant": false,
      "inputs": [],
      "name": "renounceOwnership",
      "outputs": [],
      "payable": false,
      "stateMutability": "nonpayable",
      "type": "function"
    },
    {
      "constant": true,
      "inputs": [],
      "name": "owner",
      "outputs": [
        {
          "name": "",
          "type": "address"
        }
      ],
      "payable": false,
      "stateMutability": "view",
      "type": "function"
    },
    {
      "constant": true,
      "inputs": [],
      "name": "isOwner",
      "outputs": [
        {
          "name": "",
          "type": "bool"
        }
      ],
      "payable": false,
      "stateMutability": "view",
      "type": "function"
    },
    {
      "constant": true,
      "inputs": [],
      "name": "marketAddress",
      "outputs": [
        {
          "name": "",
          "type": "address"
        }
      ],
      "payable": false,
      "stateMutability": "view",
      "type": "function"
    },
    {
      "constant": true,
      "inputs": [],
      "name": "symbol",
      "outputs": [
        {
          "name": "",
          "type": "string"
        }
      ],
      "payable": false,
      "stateMutability": "view",
      "type": "function"
    },
    {
      "constant": false,
      "inputs": [
        {
          "name": "to",
          "type": "address"
        },
        {
          "name": "approved",
          "type": "bool"
        }
      ],
      "name": "setApprovalForAll",
      "outputs": [],
      "payable": false,
      "stateMutability": "nonpayable",
      "type": "function"
    },
    {
      "constant": false,
      "inputs": [
        {
          "name": "from",
          "type": "address"
        },
        {
          "name": "to",
          "type": "address"
        },
        {
          "name": "tokenId",
          "type": "uint256"
        },
        {
          "name": "_data",
          "type": "bytes"
        }
      ],
      "name": "safeTransferFrom",
      "outputs": [],
      "payable": false,
      "stateMutability": "nonpayable",
      "type": "function"
    },
    {
      "constant": true,
      "inputs": [
        {
          "name": "tokenId",
          "type": "uint256"
        }
      ],
      "name": "tokenURI",
      "outputs": [
        {
          "name": "",
          "type": "string"
        }
      ],
      "payable": false,
      "stateMutability": "view",
      "type": "function"
    },
    {
      "constant": true,
      "inputs": [
        {
          "name": "owner",
          "type": "address"
        },
        {
          "name": "operator",
          "type": "address"
        }
      ],
      "name": "isApprovedForAll",
      "outputs": [
        {
          "name": "",
          "type": "bool"
        }
      ],
      "payable": false,
      "stateMutability": "view",
      "type": "function"
    },
    {
      "constant": false,
      "inputs": [
        {
          "name": "newOwner",
          "type": "address"
        }
      ],
      "name": "transferOwnership",
      "outputs": [],
      "payable": false,
      "stateMutability": "nonpayable",
      "type": "function"
    },
    {
      "constant": true,
      "inputs": [],
      "name": "edomMaxLength",
      "outputs": [
        {
          "name": "",
          "type": "uint256"
        }
      ],
      "payable": false,
      "stateMutability": "view",
      "type": "function"
    },
    {
      "inputs": [],
      "payable": false,
      "stateMutability": "nonpayable",
      "type": "constructor"
    },
    {
      "payable": true,
      "stateMutability": "payable",
      "type": "fallback"
    },
    {
      "anonymous": false,
      "inputs": [
        {
          "indexed": false,
          "name": "edomOwner",
          "type": "address"
        },
        {
          "indexed": false,
          "name": "edomId",
          "type": "uint256"
        },
        {
          "indexed": false,
          "name": "edomName",
          "type": "string"
        }
      ],
      "name": "edomMinted",
      "type": "event"
    },
    {
      "anonymous": false,
      "inputs": [
        {
          "indexed": false,
          "name": "edomOwner",
          "type": "address"
        },
        {
          "indexed": false,
          "name": "amt",
          "type": "uint256"
        }
      ],
      "name": "edomSlotPurchase",
      "type": "event"
    },
    {
      "anonymous": false,
      "inputs": [
        {
          "indexed": false,
          "name": "cost",
          "type": "uint256"
        }
      ],
      "name": "edomCostUpdated",
      "type": "event"
    },
    {
      "anonymous": false,
      "inputs": [
        {
          "indexed": false,
          "name": "edomMinLength",
          "type": "uint256"
        },
        {
          "indexed": false,
          "name": "edomMaxLength",
          "type": "uint256"
        }
      ],
      "name": "edomLengthReqChange",
      "type": "event"
    },
    {
      "anonymous": false,
      "inputs": [
        {
          "indexed": false,
          "name": "edomMaxAmount",
          "type": "uint256"
        }
      ],
      "name": "edomMaxAmountChange",
      "type": "event"
    },
    {
      "anonymous": false,
      "inputs": [
        {
          "indexed": true,
          "name": "previousOwner",
          "type": "address"
        },
        {
          "indexed": true,
          "name": "newOwner",
          "type": "address"
        }
      ],
      "name": "OwnershipTransferred",
      "type": "event"
    },
    {
      "anonymous": false,
      "inputs": [
        {
          "indexed": true,
          "name": "from",
          "type": "address"
        },
        {
          "indexed": true,
          "name": "to",
          "type": "address"
        },
        {
          "indexed": true,
          "name": "tokenId",
          "type": "uint256"
        }
      ],
      "name": "Transfer",
      "type": "event"
    },
    {
      "anonymous": false,
      "inputs": [
        {
          "indexed": true,
          "name": "owner",
          "type": "address"
        },
        {
          "indexed": true,
          "name": "approved",
          "type": "address"
        },
        {
          "indexed": true,
          "name": "tokenId",
          "type": "uint256"
        }
      ],
      "name": "Approval",
      "type": "event"
    },
    {
      "anonymous": false,
      "inputs": [
        {
          "indexed": true,
          "name": "owner",
          "type": "address"
        },
        {
          "indexed": true,
          "name": "operator",
          "type": "address"
        },
        {
          "indexed": false,
          "name": "approved",
          "type": "bool"
        }
      ],
      "name": "ApprovalForAll",
      "type": "event"
    },
    {
      "constant": false,
      "inputs": [
        {
          "name": "_edomName",
          "type": "string"
        },
        {
          "name": "_edomUri",
          "type": "string"
        }
      ],
      "name": "edomMint",
      "outputs": [
        {
          "name": "",
          "type": "string"
        }
      ],
      "payable": false,
      "stateMutability": "nonpayable",
      "type": "function"
    },
    {
      "constant": true,
      "inputs": [
        {
          "name": "_edomId",
          "type": "uint256"
        }
      ],
      "name": "getedomOwner",
      "outputs": [
        {
          "name": "",
          "type": "address"
        }
      ],
      "payable": false,
      "stateMutability": "view",
      "type": "function"
    },
    {
      "constant": true,
      "inputs": [
        {
          "name": "_edomName",
          "type": "string"
        }
      ],
      "name": "getedomIdFromName",
      "outputs": [
        {
          "name": "",
          "type": "uint256"
        }
      ],
      "payable": false,
      "stateMutability": "view",
      "type": "function"
    },
    {
      "constant": true,
      "inputs": [
        {
          "name": "_edomId",
          "type": "uint256"
        }
      ],
      "name": "getedomName",
      "outputs": [
        {
          "name": "",
          "type": "string"
        }
      ],
      "payable": false,
      "stateMutability": "view",
      "type": "function"
    },
    {
      "constant": true,
      "inputs": [
        {
          "name": "_edomId",
          "type": "uint256"
        }
      ],
      "name": "getedomLink",
      "outputs": [
        {
          "name": "",
          "type": "string"
        }
      ],
      "payable": false,
      "stateMutability": "view",
      "type": "function"
    },
    {
      "constant": true,
      "inputs": [
        {
          "name": "_edomId",
          "type": "uint256"
        }
      ],
      "name": "getedomTimeAlive",
      "outputs": [
        {
          "name": "",
          "type": "uint256"
        }
      ],
      "payable": false,
      "stateMutability": "view",
      "type": "function"
    },
    {
      "constant": true,
      "inputs": [
        {
          "name": "_edomId",
          "type": "uint256"
        }
      ],
      "name": "getedomTimeLastMove",
      "outputs": [
        {
          "name": "",
          "type": "uint256"
        }
      ],
      "payable": false,
      "stateMutability": "view",
      "type": "function"
    },
    {
      "constant": true,
      "inputs": [
        {
          "name": "_edomId",
          "type": "uint256"
        }
      ],
      "name": "getedomPrevOwner",
      "outputs": [
        {
          "name": "",
          "type": "address"
        }
      ],
      "payable": false,
      "stateMutability": "view",
      "type": "function"
    },
    {
      "constant": true,
      "inputs": [
        {
          "name": "_edomName",
          "type": "string"
        }
      ],
      "name": "getAddressFromedom",
      "outputs": [
        {
          "name": "",
          "type": "address"
        }
      ],
      "payable": false,
      "stateMutability": "view",
      "type": "function"
    },
    {
      "constant": true,
      "inputs": [
        {
          "name": "_edomName",
          "type": "string"
        }
      ],
      "name": "getedomitized",
      "outputs": [
        {
          "name": "",
          "type": "string"
        }
      ],
      "payable": false,
      "stateMutability": "view",
      "type": "function"
    },
    {
      "constant": false,
      "inputs": [
        {
          "name": "_edomId",
          "type": "uint256"
        },
        {
          "name": "_edomName",
          "type": "string"
        },
        {
          "name": "_prevOwner",
          "type": "address"
        },
        {
          "name": "_newOwner",
          "type": "address"
        }
      ],
      "name": "marketSale",
      "outputs": [],
      "payable": false,
      "stateMutability": "nonpayable",
      "type": "function"
    },
    {
      "constant": false,
      "inputs": [
        {
          "name": "_length",
          "type": "uint256"
        },
        {
          "name": "_pos",
          "type": "uint256"
        }
      ],
      "name": "setedomLength",
      "outputs": [],
      "payable": false,
      "stateMutability": "nonpayable",
      "type": "function"
    },
    {
      "constant": false,
      "inputs": [
        {
          "name": "_amount",
          "type": "uint256"
        }
      ],
      "name": "setedomMaxAmount",
      "outputs": [],
      "payable": false,
      "stateMutability": "nonpayable",
      "type": "function"
    },
    {
      "constant": false,
      "inputs": [
        {
          "name": "_edomMaxFree",
          "type": "uint256"
        }
      ],
      "name": "setedomMaxFree",
      "outputs": [],
      "payable": false,
      "stateMutability": "nonpayable",
      "type": "function"
    },
    {
      "constant": false,
      "inputs": [
        {
          "name": "_marketAddress",
          "type": "address"
        }
      ],
      "name": "setMarketAddress",
      "outputs": [],
      "payable": false,
      "stateMutability": "nonpayable",
      "type": "function"
    },
    {
      "constant": false,
      "inputs": [
        {
          "name": "_baseUrl",
          "type": "string"
        }
      ],
      "name": "setBaseUrl",
      "outputs": [],
      "payable": false,
      "stateMutability": "nonpayable",
      "type": "function"
    },
    {
      "constant": false,
      "inputs": [
        {
          "name": "_edomId",
          "type": "uint256"
        },
        {
          "name": "_newUri",
          "type": "string"
        }
      ],
      "name": "updateTokenUri",
      "outputs": [],
      "payable": false,
      "stateMutability": "nonpayable",
      "type": "function"
    },
    {
      "constant": false,
      "inputs": [
        {
          "name": "_edomName",
          "type": "string"
        },
        {
          "name": "_edomageUri",
          "type": "string"
        },
        {
          "name": "_address",
          "type": "address"
        }
      ],
      "name": "specialedomMint",
      "outputs": [
        {
          "name": "",
          "type": "string"
        }
      ],
      "payable": false,
      "stateMutability": "nonpayable",
      "type": "function"
    }
  ],
  "bytecode": "0x60806040526020604051908101604052806000815250600f90805190602001906200002c9291906200032c565b503480156200003a57600080fd5b506040805190810160405280600581526020017f4e46444e530000000000000000000000000000000000000000000000000000008152506040805190810160405280600581526020017f4e46444e53000000000000000000000000000000000000000000000000000000815250620000e46301ffc9a77c0100000000000000000000000000000000000000000000000000000000026200026e640100000000026401000000009004565b620001216380ac58cd7c0100000000000000000000000000000000000000000000000000000000026200026e640100000000026401000000009004565b8160059080519060200190620001399291906200032c565b508060069080519060200190620001529291906200032c565b5062000190635b5e139f7c0100000000000000000000000000000000000000000000000000000000026200026e640100000000026401000000009004565b505033600860006101000a81548173ffffffffffffffffffffffffffffffffffffffff021916908373ffffffffffffffffffffffffffffffffffffffff160217905550600860009054906101000a900473ffffffffffffffffffffffffffffffffffffffff1673ffffffffffffffffffffffffffffffffffffffff16600073ffffffffffffffffffffffffffffffffffffffff167f8be0079c531659141344cd1fd0a4f28419497f9722a3daafe3b4186f6b6457e060405160405180910390a36010600a819055506002600b819055506064600c81905550620003db565b63ffffffff7c010000000000000000000000000000000000000000000000000000000002817bffffffffffffffffffffffffffffffffffffffffffffffffffffffff191614151515620002c057600080fd5b6001600080837bffffffffffffffffffffffffffffffffffffffffffffffffffffffff19167bffffffffffffffffffffffffffffffffffffffffffffffffffffffff1916815260200190815260200160002060006101000a81548160ff02191690831515021790555050565b828054600181600116156101000203166002900490600052602060002090601f016020900481019282601f106200036f57805160ff1916838001178555620003a0565b82800160010185558215620003a0579182015b828111156200039f57825182559160200191906001019062000382565b5b509050620003af9190620003b3565b5090565b620003d891905b80821115620003d4576000816000905550600101620003ba565b5090565b90565b614c1180620003eb6000396000f3fe608060405260043610610279576000357c010000000000000000000000000000000000000000000000000000000090048063777e432511610161578063cd5a46c6116100d3578063e783d0ac11610097578063e783d0ac1461170d578063e985e9c514611788578063eb7fb90114611811578063f2fde38b146118c5578063fae9261214611916578063fc18e4561461196757610279565b8063cd5a46c6146112e9578063d31af48414611338578063d5064fa91461140a578063d93379bb1461157e578063dc818641146116d257610279565b806395623641116101255780639562364114610f1757806395d89b4114610f6e578063a22cb46514610ffe578063b88d4fde1461105b578063c7c3268b1461116d578063c87b56dd1461123557610279565b8063777e432514610d8c5780638d4e423614610dc75780638da5cb5b14610e425780638ed3f63514610e995780638f32d59b14610ee857610279565b8063395d7ee0116101fa5780635bcabf04116101be5780635bcabf0414610b9557806362d9db8e14610c255780636352211e14610c505780636760b4f914610ccb57806370a0823114610d10578063715018a614610d7557610279565b8063395d7ee0146108e0578063422bce9c1461090b57806342842e0e1461093657806346434f9c146109b1578063569880bf14610ab957610279565b806327d338331161024157806327d33833146104d157806329b65b59146105d057806332c3535214610731578063363cf97214610801578063380670d31461082c57610279565b806301ffc9a71461027e57806306fdde03146102f0578063081812fc14610380578063095ea7b3146103fb57806323b872dd14610456575b600080fd5b34801561028a57600080fd5b506102d6600480360360208110156102a157600080fd5b8101908080357bffffffffffffffffffffffffffffffffffffffffffffffffffffffff19169060200190929190505050611992565b604051808215151515815260200191505060405180910390f35b3480156102fc57600080fd5b506103056119f9565b6040518080602001828103825283818151815260200191508051906020019080838360005b8381101561034557808201518184015260208101905061032a565b50505050905090810190601f1680156103725780820380516001836020036101000a031916815260200191505b509250505060405180910390f35b34801561038c57600080fd5b506103b9600480360360208110156103a357600080fd5b8101908080359060200190929190505050611a9b565b604051808273ffffffffffffffffffffffffffffffffffffffff1673ffffffffffffffffffffffffffffffffffffffff16815260200191505060405180910390f35b34801561040757600080fd5b506104546004803603604081101561041e57600080fd5b81019080803573ffffffffffffffffffffffffffffffffffffffff16906020019092919080359060200190929190505050611aec565b005b34801561046257600080fd5b506104cf6004803603606081101561047957600080fd5b81019080803573ffffffffffffffffffffffffffffffffffffffff169060200190929190803573ffffffffffffffffffffffffffffffffffffffff16906020019092919080359060200190929190505050611c31565b005b3480156104dd57600080fd5b50610555600480360360208110156104f457600080fd5b810190808035906020019064010000000081111561051157600080fd5b82018360208201111561052357600080fd5b8035906020019184600183028401116401000000008311171561054557600080fd5b9091929391929390505050611c56565b6040518080602001828103825283818151815260200191508051906020019080838360005b8381101561059557808201518184015260208101905061057a565b50505050905090810190601f1680156105c25780820380516001836020036101000a031916815260200191505b509250505060405180910390f35b3480156105dc57600080fd5b50610609600480360360208110156105f357600080fd5b8101908080359060200190929190505050611cad565b60405180806020018681526020018581526020018473ffffffffffffffffffffffffffffffffffffffff1673ffffffffffffffffffffffffffffffffffffffff16815260200180602001838103835288818151815260200191508051906020019080838360005b8381101561068b578082015181840152602081019050610670565b50505050905090810190601f1680156106b85780820380516001836020036101000a031916815260200191505b50838103825284818151815260200191508051906020019080838360005b838110156106f15780820151818401526020810190506106d6565b50505050905090810190601f16801561071e5780820380516001836020036101000a031916815260200191505b5097505050505050505060405180910390f35b34801561073d57600080fd5b506107ff6004803603608081101561075457600080fd5b81019080803590602001909291908035906020019064010000000081111561077b57600080fd5b82018360208201111561078d57600080fd5b803590602001918460018302840111640100000000831117156107af57600080fd5b9091929391929390803573ffffffffffffffffffffffffffffffffffffffff169060200190929190803573ffffffffffffffffffffffffffffffffffffffff169060200190929190505050611e42565b005b34801561080d57600080fd5b506108166120a5565b6040518082815260200191505060405180910390f35b34801561083857600080fd5b506108656004803603602081101561084f57600080fd5b81019080803590602001909291905050506120ab565b6040518080602001828103825283818151815260200191508051906020019080838360005b838110156108a557808201518184015260208101905061088a565b50505050905090810190601f1680156108d25780820380516001836020036101000a031916815260200191505b509250505060405180910390f35b3480156108ec57600080fd5b506108f561216d565b6040518082815260200191505060405180910390f35b34801561091757600080fd5b50610920612173565b6040518082815260200191505060405180910390f35b34801561094257600080fd5b506109af6004803603606081101561095957600080fd5b81019080803573ffffffffffffffffffffffffffffffffffffffff169060200190929190803573ffffffffffffffffffffffffffffffffffffffff16906020019092919080359060200190929190505050612179565b005b3480156109bd57600080fd5b50610a77600480360360208110156109d457600080fd5b81019080803590602001906401000000008111156109f157600080fd5b820183602082011115610a0357600080fd5b80359060200191846001830284011164010000000083111715610a2557600080fd5b91908080601f016020809104026020016040519081016040528093929190818152602001838380828437600081840152601f19601f82011690508083019250505050505050919291929050505061219a565b604051808273ffffffffffffffffffffffffffffffffffffffff1673ffffffffffffffffffffffffffffffffffffffff16815260200191505060405180910390f35b348015610ac557600080fd5b50610b7f60048036036020811015610adc57600080fd5b8101908080359060200190640100000000811115610af957600080fd5b820183602082011115610b0b57600080fd5b80359060200191846001830284011164010000000083111715610b2d57600080fd5b91908080601f016020809104026020016040519081016040528093929190818152602001838380828437600081840152601f19601f82011690508083019250505050505050919291929050505061222f565b6040518082815260200191505060405180910390f35b348015610ba157600080fd5b50610baa6122a4565b6040518080602001828103825283818151815260200191508051906020019080838360005b83811015610bea578082015181840152602081019050610bcf565b50505050905090810190601f168015610c175780820380516001836020036101000a031916815260200191505b509250505060405180910390f35b348015610c3157600080fd5b50610c3a612342565b6040518082815260200191505060405180910390f35b348015610c5c57600080fd5b50610c8960048036036020811015610c7357600080fd5b8101908080359060200190929190505050612348565b604051808273ffffffffffffffffffffffffffffffffffffffff1673ffffffffffffffffffffffffffffffffffffffff16815260200191505060405180910390f35b348015610cd757600080fd5b50610d0e60048036036040811015610cee57600080fd5b8101908080359060200190929190803590602001909291905050506123c6565b005b348015610d1c57600080fd5b50610d5f60048036036020811015610d3357600080fd5b81019080803573ffffffffffffffffffffffffffffffffffffffff16906020019092919050505061244c565b6040518082815260200191505060405180910390f35b348015610d8157600080fd5b50610d8a6124d7565b005b348015610d9857600080fd5b50610dc560048036036020811015610daf57600080fd5b81019080803590602001909291905050506125ab565b005b348015610dd357600080fd5b50610e0060048036036020811015610dea57600080fd5b81019080803590602001909291905050506125c8565b604051808273ffffffffffffffffffffffffffffffffffffffff1673ffffffffffffffffffffffffffffffffffffffff16815260200191505060405180910390f35b348015610e4e57600080fd5b50610e57612612565b604051808273ffffffffffffffffffffffffffffffffffffffff1673ffffffffffffffffffffffffffffffffffffffff16815260200191505060405180910390f35b348015610ea557600080fd5b50610ed260048036036020811015610ebc57600080fd5b810190808035906020019092919050505061263c565b6040518082815260200191505060405180910390f35b348015610ef457600080fd5b50610efd612666565b604051808215151515815260200191505060405180910390f35b348015610f2357600080fd5b50610f2c6126be565b604051808273ffffffffffffffffffffffffffffffffffffffff1673ffffffffffffffffffffffffffffffffffffffff16815260200191505060405180910390f35b348015610f7a57600080fd5b50610f836126e4565b6040518080602001828103825283818151815260200191508051906020019080838360005b83811015610fc3578082015181840152602081019050610fa8565b50505050905090810190601f168015610ff05780820380516001836020036101000a031916815260200191505b509250505060405180910390f35b34801561100a57600080fd5b506110596004803603604081101561102157600080fd5b81019080803573ffffffffffffffffffffffffffffffffffffffff169060200190929190803515159060200190929190505050612786565b005b34801561106757600080fd5b5061116b6004803603608081101561107e57600080fd5b81019080803573ffffffffffffffffffffffffffffffffffffffff169060200190929190803573ffffffffffffffffffffffffffffffffffffffff16906020019092919080359060200190929190803590602001906401000000008111156110e557600080fd5b8201836020820111156110f757600080fd5b8035906020019184600183028401116401000000008311171561111957600080fd5b91908080601f016020809104026020016040519081016040528093929190818152602001838380828437600081840152601f19601f8201169050808301925050505050505091929192905050506128c2565b005b34801561117957600080fd5b506112336004803603602081101561119057600080fd5b81019080803590602001906401000000008111156111ad57600080fd5b8201836020820111156111bf57600080fd5b803590602001918460018302840111640100000000831117156111e157600080fd5b91908080601f016020809104026020016040519081016040528093929190818152602001838380828437600081840152601f19601f8201169050808301925050505050505091929192905050506128ea565b005b34801561124157600080fd5b5061126e6004803603602081101561125857600080fd5b8101908080359060200190929190505050612917565b6040518080602001828103825283818151815260200191508051906020019080838360005b838110156112ae578082015181840152602081019050611293565b50505050905090810190601f1680156112db5780820380516001836020036101000a031916815260200191505b509250505060405180910390f35b3480156112f557600080fd5b506113226004803603602081101561130c57600080fd5b81019080803590602001909291905050506129e0565b6040518082815260200191505060405180910390f35b34801561134457600080fd5b506114086004803603604081101561135b57600080fd5b81019080803590602001909291908035906020019064010000000081111561138257600080fd5b82018360208201111561139457600080fd5b803590602001918460018302840111640100000000831117156113b657600080fd5b91908080601f016020809104026020016040519081016040528093929190818152602001838380828437600081840152601f19601f820116905080830192505050505050509192919290505050612a0a565b005b34801561141657600080fd5b506115036004803603606081101561142d57600080fd5b810190808035906020019064010000000081111561144a57600080fd5b82018360208201111561145c57600080fd5b8035906020019184600183028401116401000000008311171561147e57600080fd5b90919293919293908035906020019064010000000081111561149f57600080fd5b8201836020820111156114b157600080fd5b803590602001918460018302840111640100000000831117156114d357600080fd5b9091929391929390803573ffffffffffffffffffffffffffffffffffffffff169060200190929190505050612b09565b6040518080602001828103825283818151815260200191508051906020019080838360005b83811015611543578082015181840152602081019050611528565b50505050905090810190601f1680156115705780820380516001836020036101000a031916815260200191505b509250505060405180910390f35b34801561158a57600080fd5b50611657600480360360408110156115a157600080fd5b81019080803590602001906401000000008111156115be57600080fd5b8201836020820111156115d057600080fd5b803590602001918460018302840111640100000000831117156115f257600080fd5b90919293919293908035906020019064010000000081111561161357600080fd5b82018360208201111561162557600080fd5b8035906020019184600183028401116401000000008311171561164757600080fd5b9091929391929390505050612db0565b6040518080602001828103825283818151815260200191508051906020019080838360005b8381101561169757808201518184015260208101905061167c565b50505050905090810190601f1680156116c45780820380516001836020036101000a031916815260200191505b509250505060405180910390f35b3480156116de57600080fd5b5061170b600480360360208110156116f557600080fd5b810190808035906020019092919050505061304c565b005b34801561171957600080fd5b506117466004803603602081101561173057600080fd5b81019080803590602001909291905050506130a2565b604051808273ffffffffffffffffffffffffffffffffffffffff1673ffffffffffffffffffffffffffffffffffffffff16815260200191505060405180910390f35b34801561179457600080fd5b506117f7600480360360408110156117ab57600080fd5b81019080803573ffffffffffffffffffffffffffffffffffffffff169060200190929190803573ffffffffffffffffffffffffffffffffffffffff1690602001909291905050506130b4565b604051808215151515815260200191505060405180910390f35b34801561181d57600080fd5b5061184a6004803603602081101561183457600080fd5b8101908080359060200190929190505050613148565b6040518080602001828103825283818151815260200191508051906020019080838360005b8381101561188a57808201518184015260208101905061186f565b50505050905090810190601f1680156118b75780820380516001836020036101000a031916815260200191505b509250505060405180910390f35b3480156118d157600080fd5b50611914600480360360208110156118e857600080fd5b81019080803573ffffffffffffffffffffffffffffffffffffffff16906020019092919050505061320a565b005b34801561192257600080fd5b506119656004803603602081101561193957600080fd5b81019080803573ffffffffffffffffffffffffffffffffffffffff169060200190929190505050613229565b005b34801561197357600080fd5b5061197c613280565b6040518082815260200191505060405180910390f35b6000806000837bffffffffffffffffffffffffffffffffffffffffffffffffffffffff19167bffffffffffffffffffffffffffffffffffffffffffffffffffffffff1916815260200190815260200160002060009054906101000a900460ff169050919050565b606060058054600181600116156101000203166002900480601f016020809104026020016040519081016040528092919081815260200182805460018160011615610100020316600290048015611a915780601f10611a6657610100808354040283529160200191611a91565b820191906000526020600020905b815481529060010190602001808311611a7457829003601f168201915b5050505050905090565b6000611aa682613286565b1515611ab157600080fd5b6002600083815260200190815260200160002060009054906101000a900473ffffffffffffffffffffffffffffffffffffffff169050919050565b6000611af782612348565b90508073ffffffffffffffffffffffffffffffffffffffff168373ffffffffffffffffffffffffffffffffffffffff1614151515611b3457600080fd5b8073ffffffffffffffffffffffffffffffffffffffff163373ffffffffffffffffffffffffffffffffffffffff161480611b745750611b7381336130b4565b5b1515611b7f57600080fd5b826002600084815260200190815260200160002060006101000a81548173ffffffffffffffffffffffffffffffffffffffff021916908373ffffffffffffffffffffffffffffffffffffffff160217905550818373ffffffffffffffffffffffffffffffffffffffff168273ffffffffffffffffffffffffffffffffffffffff167f8c5be1e5ebec7d5bd14f71427d1e84f3dd0314c0f7b2291e5b200ac8c7c3b92560405160405180910390a4505050565b611c3b33826132f8565b1515611c4657600080fd5b611c5183838361338d565b505050565b6060611ca583838080601f016020809104026020016040519081016040528093929190818152602001838380828437600081840152601f19601f82011690508083019250505050505050613554565b905092915050565b601481815481101515611cbc57fe5b9060005260206000209060050201600091509050806000018054600181600116156101000203166002900480601f016020809104026020016040519081016040528092919081815260200182805460018160011615610100020316600290048015611d685780601f10611d3d57610100808354040283529160200191611d68565b820191906000526020600020905b815481529060010190602001808311611d4b57829003601f168201915b5050505050908060010154908060020154908060030160009054906101000a900473ffffffffffffffffffffffffffffffffffffffff1690806004018054600181600116156101000203166002900480601f016020809104026020016040519081016040528092919081815260200182805460018160011615610100020316600290048015611e385780601f10611e0d57610100808354040283529160200191611e38565b820191906000526020600020905b815481529060010190602001808311611e1b57829003601f168201915b5050505050905085565b600960009054906101000a900473ffffffffffffffffffffffffffffffffffffffff1673ffffffffffffffffffffffffffffffffffffffff163373ffffffffffffffffffffffffffffffffffffffff16141515611e9e57600080fd5b6000601486815481101515611eaf57fe5b90600052602060002090600502019050828160030160006101000a81548173ffffffffffffffffffffffffffffffffffffffff021916908373ffffffffffffffffffffffffffffffffffffffff1602179055504281600201819055508160138686604051808383808284378083019250505092505050908152602001604051809103902060006101000a81548173ffffffffffffffffffffffffffffffffffffffff021916908373ffffffffffffffffffffffffffffffffffffffff160217905550611fc46001601160008673ffffffffffffffffffffffffffffffffffffffff1673ffffffffffffffffffffffffffffffffffffffff168152602001908152602001600020546136d690919063ffffffff16565b601160008573ffffffffffffffffffffffffffffffffffffffff1673ffffffffffffffffffffffffffffffffffffffff1681526020019081526020016000208190555061205a6001601160008573ffffffffffffffffffffffffffffffffffffffff1673ffffffffffffffffffffffffffffffffffffffff168152602001908152602001600020546136f890919063ffffffff16565b601160008473ffffffffffffffffffffffffffffffffffffffff1673ffffffffffffffffffffffffffffffffffffffff16815260200190815260200160002081905550505050505050565b600d5481565b60606014828154811015156120bc57fe5b90600052602060002090600502016004018054600181600116156101000203166002900480601f0160208091040260200160405190810160405280929190818152602001828054600181600116156101000203166002900480156121615780601f1061213657610100808354040283529160200191612161565b820191906000526020600020905b81548152906001019060200180831161214457829003601f168201915b50505050509050919050565b600b5481565b600e5481565b61219583838360206040519081016040528060008152506128c2565b505050565b60006013826040518082805190602001908083835b6020831015156121d457805182526020820191506020810190506020830392506121af565b6001836020036101000a038019825116818451168082178552505050505050905001915050908152602001604051809103902060009054906101000a900473ffffffffffffffffffffffffffffffffffffffff169050919050565b60006012826040518082805190602001908083835b6020831015156122695780518252602082019150602081019050602083039250612244565b6001836020036101000a0380198251168184511680821785525050505050509050019150509081526020016040518091039020549050919050565b600f8054600181600116156101000203166002900480601f01602080910402602001604051908101604052809291908181526020018280546001816001161561010002031660029004801561233a5780601f1061230f5761010080835404028352916020019161233a565b820191906000526020600020905b81548152906001019060200180831161231d57829003601f168201915b505050505081565b600c5481565b6000806001600084815260200190815260200160002060009054906101000a900473ffffffffffffffffffffffffffffffffffffffff169050600073ffffffffffffffffffffffffffffffffffffffff168173ffffffffffffffffffffffffffffffffffffffff16141515156123bd57600080fd5b80915050919050565b6123ce612666565b15156123d957600080fd5b6000821115156123e857600080fd5b60008114156123fd5781600b81905550612405565b81600a819055505b7f2801e5e61c8b3fce6e3b1962dd3f4afd2bb1f27532aef02da15c934b1d2b9b5a600b54600a54604051808381526020018281526020019250505060405180910390a15050565b60008073ffffffffffffffffffffffffffffffffffffffff168273ffffffffffffffffffffffffffffffffffffffff161415151561248957600080fd5b6124d0600360008473ffffffffffffffffffffffffffffffffffffffff1673ffffffffffffffffffffffffffffffffffffffff168152602001908152602001600020613719565b9050919050565b6124df612666565b15156124ea57600080fd5b600073ffffffffffffffffffffffffffffffffffffffff16600860009054906101000a900473ffffffffffffffffffffffffffffffffffffffff1673ffffffffffffffffffffffffffffffffffffffff167f8be0079c531659141344cd1fd0a4f28419497f9722a3daafe3b4186f6b6457e060405160405180910390a36000600860006101000a81548173ffffffffffffffffffffffffffffffffffffffff021916908373ffffffffffffffffffffffffffffffffffffffff160217905550565b6125b3612666565b15156125be57600080fd5b80600d8190555050565b60006014828154811015156125d957fe5b906000526020600020906005020160030160009054906101000a900473ffffffffffffffffffffffffffffffffffffffff169050919050565b6000600860009054906101000a900473ffffffffffffffffffffffffffffffffffffffff16905090565b600060148281548110151561264d57fe5b9060005260206000209060050201600101549050919050565b6000600860009054906101000a900473ffffffffffffffffffffffffffffffffffffffff1673ffffffffffffffffffffffffffffffffffffffff163373ffffffffffffffffffffffffffffffffffffffff1614905090565b600960009054906101000a900473ffffffffffffffffffffffffffffffffffffffff1681565b606060068054600181600116156101000203166002900480601f01602080910402602001604051908101604052809291908181526020018280546001816001161561010002031660029004801561277c5780601f106127515761010080835404028352916020019161277c565b820191906000526020600020905b81548152906001019060200180831161275f57829003601f168201915b5050505050905090565b3373ffffffffffffffffffffffffffffffffffffffff168273ffffffffffffffffffffffffffffffffffffffff16141515156127c157600080fd5b80600460003373ffffffffffffffffffffffffffffffffffffffff1673ffffffffffffffffffffffffffffffffffffffff16815260200190815260200160002060008473ffffffffffffffffffffffffffffffffffffffff1673ffffffffffffffffffffffffffffffffffffffff16815260200190815260200160002060006101000a81548160ff0219169083151502179055508173ffffffffffffffffffffffffffffffffffffffff163373ffffffffffffffffffffffffffffffffffffffff167f17307eab39ab6107e8899845ad3d59bd9653f200f220920489ca2b5937696c3183604051808215151515815260200191505060405180910390a35050565b6128cd848484611c31565b6128d984848484613727565b15156128e457600080fd5b50505050565b6128f2612666565b15156128fd57600080fd5b80600f9080519060200190612913929190614a7a565b5050565b606061292282613286565b151561292d57600080fd5b600760008381526020019081526020016000208054600181600116156101000203166002900480601f0160208091040260200160405190810160405280929190818152602001828054600181600116156101000203166002900480156129d45780601f106129a9576101008083540402835291602001916129d4565b820191906000526020600020905b8154815290600101906020018083116129b757829003601f168201915b50505050509050919050565b60006014828154811015156129f157fe5b9060005260206000209060050201600201549050919050565b612a12612666565b1515612a1d57600080fd5b6000601483815481101515612a2e57fe5b9060005260206000209060050201905081816004019080519060200190612a56929190614a7a565b50612b0483612aff600f8054600181600116156101000203166002900480601f016020809104026020016040519081016040528092919081815260200182805460018160011615610100020316600290048015612af45780601f10612ac957610100808354040283529160200191612af4565b820191906000526020600020905b815481529060010190602001808311612ad757829003601f168201915b50505050508561394a565b613b2d565b505050565b6060612b13612666565b1515612b1e57600080fd5b612b26614afa565b60a06040519081016040528088888080601f016020809104026020016040519081016040528093929190818152602001838380828437600081840152601f19601f8201169050808301925050505050505081526020014281526020014281526020018473ffffffffffffffffffffffffffffffffffffffff16815260200186868080601f016020809104026020016040519081016040528093929190818152602001838380828437600081840152601f19601f8201169050808301925050505050505081525090506000612cc86001601484908060018154018082558091505090600182039060005260206000209060050201600090919290919091506000820151816000019080519060200190612c3f929190614b40565b50602082015181600101556040820151816002015560608201518160030160006101000a81548173ffffffffffffffffffffffffffffffffffffffff021916908373ffffffffffffffffffffffffffffffffffffffff1602179055506080820151816004019080519060200190612cb7929190614b40565b5050506136d690919063ffffffff16565b9050612d5e818588888080601f016020809104026020016040519081016040528093929190818152602001838380828437600081840152601f19601f820116905080830192505050505050508b8b8080601f016020809104026020016040519081016040528093929190818152602001838380828437600081840152601f19601f82011690508083019250505050505050613b6d565b87878080601f016020809104026020016040519081016040528093929190818152602001838380828437600081840152601f19601f820116905080830192505050505050509250505095945050505050565b606080612e0086868080601f016020809104026020016040519081016040528093929190818152602001838380828437600081840152601f19601f82011690508083019250505050505050613554565b9050612e0a614afa565b60a0604051908101604052808381526020014281526020014281526020013373ffffffffffffffffffffffffffffffffffffffff16815260200186868080601f016020809104026020016040519081016040528093929190818152602001838380828437600081840152601f19601f8201169050808301925050505050505081525090506000612f686001601484908060018154018082558091505090600182039060005260206000209060050201600090919290919091506000820151816000019080519060200190612edf929190614b40565b50602082015181600101556040820151816002015560608201518160030160006101000a81548173ffffffffffffffffffffffffffffffffffffffff021916908373ffffffffffffffffffffffffffffffffffffffff1602179055506080820151816004019080519060200190612f57929190614b40565b5050506136d690919063ffffffff16565b905060016010846040518082805190602001908083835b602083101515612fa45780518252602082019150602081019050602083039250612f7f565b6001836020036101000a038019825116818451168082178552505050505050905001915050908152602001604051809103902060006101000a81548160ff02191690831515021790555061303e813388888080601f016020809104026020016040519081016040528093929190818152602001838380828437600081840152601f19601f8201169050808301925050505050505086613b6d565b829350505050949350505050565b613054612666565b151561305f57600080fd5b80600c819055507f2212b9d065324495727a69c0ee16fb1091781eb0c3983921877d983b6003c92e600c546040518082815260200191505060405180910390a150565b60006130ad82612348565b9050919050565b6000600460008473ffffffffffffffffffffffffffffffffffffffff1673ffffffffffffffffffffffffffffffffffffffff16815260200190815260200160002060008373ffffffffffffffffffffffffffffffffffffffff1673ffffffffffffffffffffffffffffffffffffffff16815260200190815260200160002060009054906101000a900460ff16905092915050565b606060148281548110151561315957fe5b90600052602060002090600502016000018054600181600116156101000203166002900480601f0160208091040260200160405190810160405280929190818152602001828054600181600116156101000203166002900480156131fe5780601f106131d3576101008083540402835291602001916131fe565b820191906000526020600020905b8154815290600101906020018083116131e157829003601f168201915b50505050509050919050565b613212612666565b151561321d57600080fd5b61322681613f86565b50565b613231612666565b151561323c57600080fd5b80600960006101000a81548173ffffffffffffffffffffffffffffffffffffffff021916908373ffffffffffffffffffffffffffffffffffffffff16021790555050565b600a5481565b6000806001600084815260200190815260200160002060009054906101000a900473ffffffffffffffffffffffffffffffffffffffff169050600073ffffffffffffffffffffffffffffffffffffffff168173ffffffffffffffffffffffffffffffffffffffff161415915050919050565b60008061330483612348565b90508073ffffffffffffffffffffffffffffffffffffffff168473ffffffffffffffffffffffffffffffffffffffff16148061337357508373ffffffffffffffffffffffffffffffffffffffff1661335b84611a9b565b73ffffffffffffffffffffffffffffffffffffffff16145b80613384575061338381856130b4565b5b91505092915050565b8273ffffffffffffffffffffffffffffffffffffffff166133ad82612348565b73ffffffffffffffffffffffffffffffffffffffff161415156133cf57600080fd5b600073ffffffffffffffffffffffffffffffffffffffff168273ffffffffffffffffffffffffffffffffffffffff161415151561340b57600080fd5b61341481614082565b61345b600360008573ffffffffffffffffffffffffffffffffffffffff1673ffffffffffffffffffffffffffffffffffffffff168152602001908152602001600020614142565b6134a2600360008473ffffffffffffffffffffffffffffffffffffffff1673ffffffffffffffffffffffffffffffffffffffff168152602001908152602001600020614165565b816001600083815260200190815260200160002060006101000a81548173ffffffffffffffffffffffffffffffffffffffff021916908373ffffffffffffffffffffffffffffffffffffffff160217905550808273ffffffffffffffffffffffffffffffffffffffff168473ffffffffffffffffffffffffffffffffffffffff167fddf252ad1be2c89b69c2b068fc378daa952ba7f163c4a11628f55a4df523b3ef60405160405180910390a4505050565b6060806135608361417b565b905061356b81614246565b15156135df576040517f08c379a00000000000000000000000000000000000000000000000000000000081526004018080602001828103825260118152602001807f65646f6d206973206e6f742076616c696400000000000000000000000000000081525060200191505060405180910390fd5b6010816040518082805190602001908083835b60208310151561361757805182526020820191506020810190506020830392506135f2565b6001836020036101000a038019825116818451168082178552505050505050905001915050908152602001604051809103902060009054906101000a900460ff161515156136cd576040517f08c379a00000000000000000000000000000000000000000000000000000000081526004018080602001828103825260128152602001807f65646f6d206973206e6f7420756e69717565000000000000000000000000000081525060200191505060405180910390fd5b80915050919050565b60008282111515156136e757600080fd5b600082840390508091505092915050565b600080828401905083811015151561370f57600080fd5b8091505092915050565b600081600001549050919050565b60006137488473ffffffffffffffffffffffffffffffffffffffff166147df565b15156137575760019050613942565b60008473ffffffffffffffffffffffffffffffffffffffff1663150b7a02338887876040518563ffffffff167c0100000000000000000000000000000000000000000000000000000000028152600401808573ffffffffffffffffffffffffffffffffffffffff1673ffffffffffffffffffffffffffffffffffffffff1681526020018473ffffffffffffffffffffffffffffffffffffffff1673ffffffffffffffffffffffffffffffffffffffff16815260200183815260200180602001828103825283818151815260200191508051906020019080838360005b8381101561384e578082015181840152602081019050613833565b50505050905090810190601f16801561387b5780820380516001836020036101000a031916815260200191505b5095505050505050602060405180830381600087803b15801561389d57600080fd5b505af11580156138b1573d6000803e3d6000fd5b505050506040513d60208110156138c757600080fd5b8101908080519060200190929190505050905063150b7a027c0100000000000000000000000000000000000000000000000000000000027bffffffffffffffffffffffffffffffffffffffffffffffffffffffff1916817bffffffffffffffffffffffffffffffffffffffffffffffffffffffff1916149150505b949350505050565b6060808390506060839050606061396c825184516136f890919063ffffffff16565b6040519080825280601f01601f19166020018201604052801561399e5781602001600182028038833980820191505090505b5090506060819050600080905060008090505b8551811015613a645785818151811015156139c857fe5b9060200101517f010000000000000000000000000000000000000000000000000000000000000090047f0100000000000000000000000000000000000000000000000000000000000000028383806001019450815181101515613a2757fe5b9060200101907effffffffffffffffffffffffffffffffffffffffffffffffffffffffffffff1916908160001a90535080806001019150506139b1565b5060008090505b8451811015613b1e578481815181101515613a8257fe5b9060200101517f010000000000000000000000000000000000000000000000000000000000000090047f0100000000000000000000000000000000000000000000000000000000000000028383806001019450815181101515613ae157fe5b9060200101907effffffffffffffffffffffffffffffffffffffffffffffffffffffffffffff1916908160001a9053508080600101915050613a6b565b50819550505050505092915050565b613b3682613286565b1515613b4157600080fd5b80600760008481526020019081526020016000209080519060200190613b68929190614a7a565b505050565b600c54601160008573ffffffffffffffffffffffffffffffffffffffff1673ffffffffffffffffffffffffffffffffffffffff16815260200190815260200160002054101515613c25576040517f08c379a000000000000000000000000000000000000000000000000000000000815260040180806020018281038252600e8152602001807f6d61782065646f6d206f776e656400000000000000000000000000000000000081525060200191505060405180910390fd5b836012826040518082805190602001908083835b602083101515613c5e5780518252602082019150602081019050602083039250613c39565b6001836020036101000a038019825116818451168082178552505050505050905001915050908152602001604051809103902081905550826013826040518082805190602001908083835b602083101515613cce5780518252602082019150602081019050602083039250613ca9565b6001836020036101000a038019825116818451168082178552505050505050905001915050908152602001604051809103902060006101000a81548173ffffffffffffffffffffffffffffffffffffffff021916908373ffffffffffffffffffffffffffffffffffffffff160217905550613d926001601160008673ffffffffffffffffffffffffffffffffffffffff1673ffffffffffffffffffffffffffffffffffffffff168152602001908152602001600020546136f890919063ffffffff16565b601160008573ffffffffffffffffffffffffffffffffffffffff1673ffffffffffffffffffffffffffffffffffffffff16815260200190815260200160002081905550613deb6001600e546136f890919063ffffffff16565b600e81905550613dfb83856147f2565b613ea884613ea3600f8054600181600116156101000203166002900480601f016020809104026020016040519081016040528092919081815260200182805460018160011615610100020316600290048015613e985780601f10613e6d57610100808354040283529160200191613e98565b820191906000526020600020905b815481529060010190602001808311613e7b57829003601f168201915b50505050508561394a565b613b2d565b7f15c2405d8fe286d047c402e3c9a3083b993930e8e40993c118def929213edc6e838583604051808473ffffffffffffffffffffffffffffffffffffffff1673ffffffffffffffffffffffffffffffffffffffff16815260200183815260200180602001828103825283818151815260200191508051906020019080838360005b83811015613f44578082015181840152602081019050613f29565b50505050905090810190601f168015613f715780820380516001836020036101000a031916815260200191505b5094505050505060405180910390a150505050565b600073ffffffffffffffffffffffffffffffffffffffff168173ffffffffffffffffffffffffffffffffffffffff1614151515613fc257600080fd5b8073ffffffffffffffffffffffffffffffffffffffff16600860009054906101000a900473ffffffffffffffffffffffffffffffffffffffff1673ffffffffffffffffffffffffffffffffffffffff167f8be0079c531659141344cd1fd0a4f28419497f9722a3daafe3b4186f6b6457e060405160405180910390a380600860006101000a81548173ffffffffffffffffffffffffffffffffffffffff021916908373ffffffffffffffffffffffffffffffffffffffff16021790555050565b600073ffffffffffffffffffffffffffffffffffffffff166002600083815260200190815260200160002060009054906101000a900473ffffffffffffffffffffffffffffffffffffffff1673ffffffffffffffffffffffffffffffffffffffff1614151561413f5760006002600083815260200190815260200160002060006101000a81548173ffffffffffffffffffffffffffffffffffffffff021916908373ffffffffffffffffffffffffffffffffffffffff1602179055505b50565b61415a600182600001546136d690919063ffffffff16565b816000018190555050565b6001816000016000828254019250508190555050565b60608082905060008090505b815181101561423c576141f182828151811015156141a157fe5b9060200101517f010000000000000000000000000000000000000000000000000000000000000090047f01000000000000000000000000000000000000000000000000000000000000000261493c565b82828151811015156141ff57fe5b9060200101907effffffffffffffffffffffffffffffffffffffffffffffffffffffffffffff1916908160001a9053508080600101915050614187565b5080915050919050565b60006060829050600081519050600a548111806142655750600b548111155b15614275576000925050506147da565b600060207f01000000000000000000000000000000000000000000000000000000000000000290506000602e7f0100000000000000000000000000000000000000000000000000000000000000029050600060657f0100000000000000000000000000000000000000000000000000000000000000029050600060747f0100000000000000000000000000000000000000000000000000000000000000029050600060687f010000000000000000000000000000000000000000000000000000000000000002905060008090506000809050600080905060008090505b8981101561477b57887effffffffffffffffffffffffffffffffffffffffffffffffffffffffffffff19168b8281518110151561438b57fe5b9060200101517f010000000000000000000000000000000000000000000000000000000000000090047f0100000000000000000000000000000000000000000000000000000000000000027effffffffffffffffffffffffffffffffffffffffffffffffffffffffffffff191614156144125760009b5050505050505050505050506147da565b877effffffffffffffffffffffffffffffffffffffffffffffffffffffffffffff19168b8281518110151561444357fe5b9060200101517f010000000000000000000000000000000000000000000000000000000000000090047f0100000000000000000000000000000000000000000000000000000000000000027effffffffffffffffffffffffffffffffffffffffffffffffffffffffffffff191614156144f2576144ca6001856136f890919063ffffffff16565b935060018411156144e95760009b5050505050505050505050506147da565b6001925061476e565b6000831180156145025750600583105b1561476d5760018314156145cc57867effffffffffffffffffffffffffffffffffffffffffffffffffffffffffffff19168b8281518110151561454157fe5b9060200101517f010000000000000000000000000000000000000000000000000000000000000090047f0100000000000000000000000000000000000000000000000000000000000000027effffffffffffffffffffffffffffffffffffffffffffffffffffffffffffff191614156145cb576145c86001836136f890919063ffffffff16565b91505b5b600283141561469157857effffffffffffffffffffffffffffffffffffffffffffffffffffffffffffff19168b8281518110151561460657fe5b9060200101517f010000000000000000000000000000000000000000000000000000000000000090047f0100000000000000000000000000000000000000000000000000000000000000027effffffffffffffffffffffffffffffffffffffffffffffffffffffffffffff191614156146905761468d6001836136f890919063ffffffff16565b91505b5b600383141561475657847effffffffffffffffffffffffffffffffffffffffffffffffffffffffffffff19168b828151811015156146cb57fe5b9060200101517f010000000000000000000000000000000000000000000000000000000000000090047f0100000000000000000000000000000000000000000000000000000000000000027effffffffffffffffffffffffffffffffffffffffffffffffffffffffffffff19161415614755576147526001836136f890919063ffffffff16565b91505b5b61476a6001846136f890919063ffffffff16565b92505b5b8080600101915050614352565b5060008314156147985760009a50505050505050505050506147da565b6003811480156147a85750600482145b806147b35750600182145b156147cb5760009a50505050505050505050506147da565b60019a50505050505050505050505b919050565b600080823b905060008111915050919050565b600073ffffffffffffffffffffffffffffffffffffffff168273ffffffffffffffffffffffffffffffffffffffff161415151561482e57600080fd5b61483781613286565b15151561484357600080fd5b816001600083815260200190815260200160002060006101000a81548173ffffffffffffffffffffffffffffffffffffffff021916908373ffffffffffffffffffffffffffffffffffffffff1602179055506148dc600360008473ffffffffffffffffffffffffffffffffffffffff1673ffffffffffffffffffffffffffffffffffffffff168152602001908152602001600020614165565b808273ffffffffffffffffffffffffffffffffffffffff16600073ffffffffffffffffffffffffffffffffffffffff167fddf252ad1be2c89b69c2b068fc378daa952ba7f163c4a11628f55a4df523b3ef60405160405180910390a45050565b600060417f0100000000000000000000000000000000000000000000000000000000000000027effffffffffffffffffffffffffffffffffffffffffffffffffffffffffffff1916827effffffffffffffffffffffffffffffffffffffffffffffffffffffffffffff191610158015614a1c5750605a7f0100000000000000000000000000000000000000000000000000000000000000027effffffffffffffffffffffffffffffffffffffffffffffffffffffffffffff1916827effffffffffffffffffffffffffffffffffffffffffffffffffffffffffffff191611155b15614a71576020827f01000000000000000000000000000000000000000000000000000000000000009004017f0100000000000000000000000000000000000000000000000000000000000000029050614a75565b8190505b919050565b828054600181600116156101000203166002900490600052602060002090601f016020900481019282601f10614abb57805160ff1916838001178555614ae9565b82800160010185558215614ae9579182015b82811115614ae8578251825591602001919060010190614acd565b5b509050614af69190614bc0565b5090565b60a060405190810160405280606081526020016000815260200160008152602001600073ffffffffffffffffffffffffffffffffffffffff168152602001606081525090565b828054600181600116156101000203166002900490600052602060002090601f016020900481019282601f10614b8157805160ff1916838001178555614baf565b82800160010185558215614baf579182015b82811115614bae578251825591602001919060010190614b93565b5b509050614bbc9190614bc0565b5090565b614be291905b80821115614bde576000816000905550600101614bc6565b5090565b9056fea165627a7a723058202e3fd4de8f4b1a4ae2b4544a3804cb440041dde60f0ba58c703d925ca208682a0029",
  "source": "// @title NFDNS - Non Fungible DNS\r\n// @author Jonathan Teel \r\n// @dev Manage NF tokens (edoms) like a DNS\r\n\r\npragma solidity ^0.5.2;\r\n\r\nimport \"openzeppelin-solidity/contracts/token/ERC721/ERC721Metadata.sol\";\r\nimport \"openzeppelin-solidity/contracts/ownership/Ownable.sol\";\r\n\r\ncontract ERC20 {\r\n  function transfer(address _to, uint256 _amount) public returns (bool success);\r\n  function balanceOf(address tokenOwner) public view returns (uint balance);\r\n}\r\n\r\n\r\ncontract NFDNS is ERC721Metadata, Ownable {\r\n\r\n  address public marketAddress;\r\n\r\n  uint256 public edomMaxLength;\r\n  uint256 public edomMinLength;\r\n  uint256 public edomMaxAmount;\r\n  uint256 public edomMaxFree;\r\n  uint256 public edomCurrentTotal;\r\n\r\n  string public baseUrl = \"\";\r\n\r\n  mapping(string=>bool) edomOwnership;\r\n  mapping(address=>uint256) edomOwnerAmount;\r\n  mapping(string=>uint256) edomNameToId;\r\n  mapping(string=>address) edomNameToAddress;\r\n\r\n  struct EDom {\r\n    string edomName;\r\n    uint256 timeAlive;\r\n    uint256 timeLastMove;\r\n    address prevOwner;\r\n    string edomLink;\r\n  }\r\n\r\n  EDom[] public edoms;\r\n\r\n  modifier isMarketAddress() {\r\n    require(msg.sender == marketAddress);\r\n    _;\r\n  }\r\n\r\n  event edomMinted(address edomOwner, uint256 edomId, string edomName);\r\n  event edomSlotPurchase(address edomOwner, uint256 amt);\r\n  event edomCostUpdated(uint256 cost);\r\n  event edomLengthReqChange(uint256 edomMinLength, uint256 edomMaxLength);\r\n  event edomMaxAmountChange(uint256 edomMaxAmount);\r\n\r\n  constructor() public ERC721Metadata(\"NFDNS\", \"NFDNS\") {\r\n    edomMaxLength = 16;\r\n    edomMinLength = 2;\r\n    edomMaxAmount = 100;\r\n  }\r\n\r\n  function edomMint(string calldata _edomName, string calldata _edomUri) external returns (string memory) {\r\n    string memory sn = edomitize(_edomName);\r\n    EDom memory s = EDom({\r\n        edomName: sn,\r\n        timeAlive: block.timestamp,\r\n        timeLastMove: block.timestamp,\r\n        prevOwner: msg.sender,\r\n        edomLink: _edomUri\r\n    });\r\n    uint256 edomId = edoms.push(s).sub(1);\r\n    edomOwnership[sn] = true;\r\n    _edomMint(edomId, msg.sender, _edomUri, sn);\r\n    return sn;\r\n  }\r\n\r\n  function getedomOwner(uint256 _edomId) public view returns (address) {\r\n    return ownerOf(_edomId);\r\n  }\r\n\r\n  function getedomIdFromName(string memory _edomName) public view returns (uint256) {\r\n    return edomNameToId[_edomName];\r\n  }\r\n\r\n  function getedomName(uint256 _edomId) public view returns (string memory) {\r\n    return edoms[_edomId].edomName;\r\n  }\r\n\r\n  function getedomLink(uint256 _edomId) public view returns (string memory) {\r\n    return edoms[_edomId].edomLink;\r\n  }\r\n\r\n  function getedomTimeAlive(uint256 _edomId) public view returns (uint256) {\r\n    return edoms[_edomId].timeAlive;\r\n  }\r\n\r\n  function getedomTimeLastMove(uint256 _edomId) public view returns (uint256) {\r\n    return edoms[_edomId].timeLastMove;\r\n  }\r\n\r\n  function getedomPrevOwner(uint256 _edomId) public view returns (address) {\r\n    return edoms[_edomId].prevOwner;\r\n  }\r\n\r\n  function getAddressFromedom(string memory _edomName) public view returns (address) {\r\n    return edomNameToAddress[_edomName];\r\n  }\r\n\r\n  // used for initial check to not waste gas\r\n  function getedomitized(string calldata _edomName) external view returns (string memory) {\r\n    return edomitize(_edomName);\r\n  }\r\n\r\n  function marketSale(uint256 _edomId, string calldata _edomName, address _prevOwner, address _newOwner) external isMarketAddress {\r\n    EDom storage s = edoms[_edomId];\r\n    s.prevOwner = _prevOwner;\r\n    s.timeLastMove = block.timestamp;\r\n    edomNameToAddress[_edomName] = _newOwner;\r\n    edomOwnerAmount[_prevOwner] = edomOwnerAmount[_prevOwner].sub(1);\r\n    edomOwnerAmount[_newOwner] = edomOwnerAmount[_newOwner].add(1);\r\n  }\r\n\r\n  function() external payable { revert(); }\r\n\r\n  // OWNER FUNCTIONS\r\n\r\n  function setedomLength(uint256 _length, uint256 _pos) external onlyOwner {\r\n    require(_length > 0);\r\n    if(_pos == 0) edomMinLength = _length;\r\n    else edomMaxLength = _length;\r\n    emit edomLengthReqChange(edomMinLength, edomMaxLength);\r\n  }\r\n\r\n  function setedomMaxAmount(uint256 _amount) external onlyOwner {\r\n    edomMaxAmount = _amount;\r\n    emit edomMaxAmountChange(edomMaxAmount);\r\n  }\r\n\r\n  function setedomMaxFree(uint256 _edomMaxFree) external onlyOwner {\r\n    edomMaxFree = _edomMaxFree;\r\n  }\r\n\r\n  function setMarketAddress(address _marketAddress) public onlyOwner {\r\n    marketAddress = _marketAddress;\r\n  }\r\n\r\n  function setBaseUrl(string memory _baseUrl) public onlyOwner {\r\n    baseUrl = _baseUrl;\r\n  }\r\n\r\n  function updateTokenUri(uint256 _edomId, string memory _newUri) public onlyOwner {\r\n    EDom storage s = edoms[_edomId];\r\n    s.edomLink = _newUri;\r\n    _setTokenURI(_edomId, strConcat(baseUrl, _newUri));\r\n  }\r\n\r\n  function specialedomMint(string calldata _edomName, string calldata _edomageUri, address _address) external onlyOwner returns (string memory) {\r\n    EDom memory s = EDom({\r\n        edomName: _edomName,\r\n        timeAlive: block.timestamp,\r\n        timeLastMove: block.timestamp,\r\n        prevOwner: _address,\r\n        edomLink: _edomageUri\r\n    });\r\n    uint256 edomId = edoms.push(s).sub(1);\r\n    _edomMint(edomId, _address, _edomageUri, _edomName);\r\n    return _edomName;\r\n  }\r\n\r\n  // INTERNAL FUNCTIONS\r\n\r\n  function edomitize(string memory _edomName) internal view returns(string memory) {\r\n    string memory sn = edomToLower(_edomName);\r\n    require(isValidedom(sn), \"edom is not valid\");\r\n    require(!edomOwnership[sn], \"edom is not unique\");\r\n    return sn;\r\n  }\r\n\r\n  function _edomMint(uint256 _edomId, address _owner, string memory _edomageUri, string memory _edomName) internal {\r\n    require(edomOwnerAmount[_owner] < edomMaxAmount, \"max edom owned\");\r\n    edomNameToId[_edomName] = _edomId;\r\n    edomNameToAddress[_edomName] = _owner;\r\n    edomOwnerAmount[_owner] = edomOwnerAmount[_owner].add(1);\r\n    edomCurrentTotal = edomCurrentTotal.add(1);\r\n    _mint(_owner, _edomId);\r\n    _setTokenURI(_edomId, strConcat(baseUrl, _edomageUri));\r\n    emit edomMinted(_owner, _edomId, _edomName);\r\n  }\r\n\r\n  // Valid edom is [ANY].[ANY] at minLength < edom.length < maxLength\r\n  function isValidedom(string memory _edomName) internal view returns(bool) {\r\n    bytes memory wb = bytes(_edomName);\r\n    uint slen = wb.length;\r\n    if (slen > edomMaxLength || slen <= edomMinLength) return false;\r\n    bytes1 space = bytes1(0x20);\r\n    bytes1 period = bytes1(0x2E);\r\n    // edom can not end in .eth \r\n    bytes1 e = bytes1(0x65);\r\n    bytes1 t = bytes1(0x74);\r\n    bytes1 h = bytes1(0x68);\r\n    uint256 dCount = 0;\r\n    uint256 eCount = 0;\r\n    uint256 eth = 0;\r\n    for(uint256 i = 0; i < slen; i++) {\r\n        if(wb[i] == space) return false;\r\n        else if(wb[i] == period) {\r\n          dCount = dCount.add(1);\r\n          if(dCount > 1) return false;\r\n          eCount = 1;\r\n        } else if(eCount > 0 && eCount < 5) {\r\n          if(eCount == 1) if(wb[i] == e) eth = eth.add(1);\r\n          if(eCount == 2) if(wb[i] == t) eth = eth.add(1);\r\n          if(eCount == 3) if(wb[i] == h) eth = eth.add(1);\r\n          eCount = eCount.add(1);\r\n        }\r\n    }\r\n    if(dCount == 0) return false;\r\n    if((eth == 3 && eCount == 4) || eCount == 1) return false;\r\n    return true;\r\n  }\r\n\r\n  function edomToLower(string memory _edomName) internal pure returns(string memory) {\r\n    bytes memory b = bytes(_edomName);\r\n    for(uint256 i = 0; i < b.length; i++) {\r\n      b[i] = byteToLower(b[i]);\r\n    }\r\n    return string(b);\r\n  }\r\n\r\n  function byteToLower(bytes1 _b) internal pure returns(bytes1) {\r\n    if(_b >= bytes1(0x41) && _b <= bytes1(0x5A))\r\n      return bytes1(uint8(_b) + 32);\r\n    return _b;\r\n  }\r\n\r\n  function strConcat(string memory _a, string memory _b) internal pure returns(string memory) {\r\n    bytes memory _ba = bytes(_a);\r\n    bytes memory _bb = bytes(_b);\r\n    string memory ab = new string(_ba.length.add(_bb.length));\r\n    bytes memory bab = bytes(ab);\r\n    uint256 k = 0;\r\n    for (uint256 i = 0; i < _ba.length; i++) bab[k++] = _ba[i];\r\n    for (uint256 i = 0; i < _bb.length; i++) bab[k++] = _bb[i];\r\n    return string(bab);\r\n  }\r\n\r\n}\r\n",
  "sourcePath": "C:/E-DNS/contracts/NFDNS.sol",
  "compiler": {
    "name": "solc",
    "version": "0.5.2+commit.1df8f40c.Emscripten.clang"
  },
  "schemaVersion": "3.0.5",
  "updatedAt": "2019-03-23T05:52:58.940Z",
  "devdoc": {
    "methods": {
      "approve(address,uint256)": {
        "details": "Approves another address to transfer the given token ID The zero address indicates there is no approved address. There can only be one approved address per token at a given time. Can only be called by the token owner or an approved operator.",
        "params": {
          "to": "address to be approved for the given token ID",
          "tokenId": "uint256 ID of the token to be approved"
        }
      },
      "balanceOf(address)": {
        "details": "Gets the balance of the specified address",
        "params": {
          "owner": "address to query the balance of"
        },
        "return": "uint256 representing the amount owned by the passed address"
      },
      "getApproved(uint256)": {
        "details": "Gets the approved address for a token ID, or zero if no address set Reverts if the token ID does not exist.",
        "params": {
          "tokenId": "uint256 ID of the token to query the approval of"
        },
        "return": "address currently approved for the given token ID"
      },
      "isApprovedForAll(address,address)": {
        "details": "Tells whether an operator is approved by a given owner",
        "params": {
          "operator": "operator address which you want to query the approval of",
          "owner": "owner address which you want to query the approval of"
        },
        "return": "bool whether the given operator is approved by the given owner"
      },
      "isOwner()": {
        "return": "true if `msg.sender` is the owner of the contract."
      },
      "name()": {
        "details": "Gets the token name",
        "return": "string representing the token name"
      },
      "owner()": {
        "return": "the address of the owner."
      },
      "ownerOf(uint256)": {
        "details": "Gets the owner of the specified token ID",
        "params": {
          "tokenId": "uint256 ID of the token to query the owner of"
        },
        "return": "address currently marked as the owner of the given token ID"
      },
      "renounceOwnership()": {
        "details": "Allows the current owner to relinquish control of the contract. It will not be possible to call the functions with the `onlyOwner` modifier anymore."
      },
      "safeTransferFrom(address,address,uint256)": {
        "details": "Safely transfers the ownership of a given token ID to another address If the target address is a contract, it must implement `onERC721Received`, which is called upon a safe transfer, and return the magic value `bytes4(keccak256(\"onERC721Received(address,address,uint256,bytes)\"))`; otherwise, the transfer is reverted. Requires the msg.sender to be the owner, approved, or operator",
        "params": {
          "from": "current owner of the token",
          "to": "address to receive the ownership of the given token ID",
          "tokenId": "uint256 ID of the token to be transferred"
        }
      },
      "safeTransferFrom(address,address,uint256,bytes)": {
        "details": "Safely transfers the ownership of a given token ID to another address If the target address is a contract, it must implement `onERC721Received`, which is called upon a safe transfer, and return the magic value `bytes4(keccak256(\"onERC721Received(address,address,uint256,bytes)\"))`; otherwise, the transfer is reverted. Requires the msg.sender to be the owner, approved, or operator",
        "params": {
          "_data": "bytes data to send along with a safe transfer check",
          "from": "current owner of the token",
          "to": "address to receive the ownership of the given token ID",
          "tokenId": "uint256 ID of the token to be transferred"
        }
      },
      "setApprovalForAll(address,bool)": {
        "details": "Sets or unsets the approval of a given operator An operator is allowed to transfer all tokens of the sender on their behalf",
        "params": {
          "approved": "representing the status of the approval to be set",
          "to": "operator address to set the approval"
        }
      },
      "supportsInterface(bytes4)": {
        "details": "implement supportsInterface(bytes4) using a lookup table"
      },
      "symbol()": {
        "details": "Gets the token symbol",
        "return": "string representing the token symbol"
      },
      "tokenURI(uint256)": {
        "details": "Returns an URI for a given token ID Throws if the token ID does not exist. May return an empty string.",
        "params": {
          "tokenId": "uint256 ID of the token to query"
        }
      },
      "transferFrom(address,address,uint256)": {
        "details": "Transfers the ownership of a given token ID to another address Usage of this method is discouraged, use `safeTransferFrom` whenever possible Requires the msg.sender to be the owner, approved, or operator",
        "params": {
          "from": "current owner of the token",
          "to": "address to receive the ownership of the given token ID",
          "tokenId": "uint256 ID of the token to be transferred"
        }
      },
      "transferOwnership(address)": {
        "details": "Allows the current owner to transfer control of the contract to a newOwner.",
        "params": {
          "newOwner": "The address to transfer ownership to."
        }
      }
    }
  },
  "userdoc": {
    "methods": {
      "renounceOwnership()": {
        "notice": "Renouncing ownership will leave the contract without an owner, thereby removing any functionality that is only available to the owner."
      }
    }
  }
}